{"abi":[{"type":"constructor","inputs":[{"name":"name","type":"string","internalType":"string"},{"name":"symbol","type":"string","internalType":"string"},{"name":"decimals_","type":"uint8","internalType":"uint8"},{"name":"initialSupply","type":"uint256","internalType":"uint256"}],"stateMutability":"nonpayable"},{"type":"function","name":"DOMAIN_SEPARATOR","inputs":[],"outputs":[{"name":"","type":"bytes32","internalType":"bytes32"}],"stateMutability":"view"},{"type":"function","name":"allowance","inputs":[{"name":"owner","type":"address","internalType":"address"},{"name":"spender","type":"address","internalType":"address"}],"outputs":[{"name":"","type":"uint256","internalType":"uint256"}],"stateMutability":"view"},{"type":"function","name":"approve","inputs":[{"name":"spender","type":"address","internalType":"address"},{"name":"value","type":"uint256","internalType":"uint256"}],"outputs":[{"name":"","type":"bool","internalType":"bool"}],"stateMutability":"nonpayable"},{"type":"function","name":"balanceOf","inputs":[{"name":"account","type":"address","internalType":"address"}],"outputs":[{"name":"","type":"uint256","internalType":"uint256"}],"stateMutability":"view"},{"type":"function","name":"batchFaucet","inputs":[{"name":"recipients","type":"address[]","internalType":"address[]"}],"outputs":[],"stateMutability":"nonpayable"},{"type":"function","name":"decimals","inputs":[],"outputs":[{"name":"","type":"uint8","internalType":"uint8"}],"stateMutability":"view"},{"type":"function","name":"eip712Domain","inputs":[],"outputs":[{"name":"fields","type":"bytes1","internalType":"bytes1"},{"name":"name","type":"string","internalType":"string"},{"name":"version","type":"string","internalType":"string"},{"name":"chainId","type":"uint256","internalType":"uint256"},{"name":"verifyingContract","type":"address","internalType":"address"},{"name":"salt","type":"bytes32","internalType":"bytes32"},{"name":"extensions","type":"uint256[]","internalType":"uint256[]"}],"stateMutability":"view"},{"type":"function","name":"faucet","inputs":[],"outputs":[],"stateMutability":"nonpayable"},{"type":"function","name":"mint","inputs":[{"name":"to","type":"address","internalType":"address"},{"name":"amount","type":"uint256","internalType":"uint256"}],"outputs":[],"stateMutability":"nonpayable"},{"type":"function","name":"name","inputs":[],"outputs":[{"name":"","type":"string","internalType":"string"}],"stateMutability":"view"},{"type":"function","name":"nonces","inputs":[{"name":"owner","type":"address","internalType":"address"}],"outputs":[{"name":"","type":"uint256","internalType":"uint256"}],"stateMutability":"view"},{"type":"function","name":"owner","inputs":[],"outputs":[{"name":"","type":"address","internalType":"address"}],"stateMutability":"view"},{"type":"function","name":"permit","inputs":[{"name":"owner","type":"address","internalType":"address"},{"name":"spender","type":"address","internalType":"address"},{"name":"value","type":"uint256","internalType":"uint256"},{"name":"deadline","type":"uint256","internalType":"uint256"},{"name":"v","type":"uint8","internalType":"uint8"},{"name":"r","type":"bytes32","internalType":"bytes32"},{"name":"s","type":"bytes32","internalType":"bytes32"}],"outputs":[],"stateMutability":"nonpayable"},{"type":"function","name":"renounceOwnership","inputs":[],"outputs":[],"stateMutability":"nonpayable"},{"type":"function","name":"symbol","inputs":[],"outputs":[{"name":"","type":"string","internalType":"string"}],"stateMutability":"view"},{"type":"function","name":"totalSupply","inputs":[],"outputs":[{"name":"","type":"uint256","internalType":"uint256"}],"stateMutability":"view"},{"type":"function","name":"transfer","inputs":[{"name":"to","type":"address","internalType":"address"},{"name":"value","type":"uint256","internalType":"uint256"}],"outputs":[{"name":"","type":"bool","internalType":"bool"}],"stateMutability":"nonpayable"},{"type":"function","name":"transferFrom","inputs":[{"name":"from","type":"address","internalType":"address"},{"name":"to","type":"address","internalType":"address"},{"name":"value","type":"uint256","internalType":"uint256"}],"outputs":[{"name":"","type":"bool","internalType":"bool"}],"stateMutability":"nonpayable"},{"type":"function","name":"transferOwnership","inputs":[{"name":"newOwner","type":"address","internalType":"address"}],"outputs":[],"stateMutability":"nonpayable"},{"type":"event","name":"Approval","inputs":[{"name":"owner","type":"address","indexed":true,"internalType":"address"},{"name":"spender","type":"address","indexed":true,"internalType":"address"},{"name":"value","type":"uint256","indexed":false,"internalType":"uint256"}],"anonymous":false},{"type":"event","name":"EIP712DomainChanged","inputs":[],"anonymous":false},{"type":"event","name":"OwnershipTransferred","inputs":[{"name":"previousOwner","type":"address","indexed":true,"internalType":"address"},{"name":"newOwner","type":"address","indexed":true,"internalType":"address"}],"anonymous":false},{"type":"event","name":"Transfer","inputs":[{"name":"from","type":"address","indexed":true,"internalType":"address"},{"name":"to","type":"address","indexed":true,"internalType":"address"},{"name":"value","type":"uint256","indexed":false,"internalType":"uint256"}],"anonymous":false},{"type":"error","name":"ECDSAInvalidSignature","inputs":[]},{"type":"error","name":"ECDSAInvalidSignatureLength","inputs":[{"name":"length","type":"uint256","internalType":"uint256"}]},{"type":"error","name":"ECDSAInvalidSignatureS","inputs":[{"name":"s","type":"bytes32","internalType":"bytes32"}]},{"type":"error","name":"ERC20InsufficientAllowance","inputs":[{"name":"spender","type":"address","internalType":"address"},{"name":"allowance","type":"uint256","internalType":"uint256"},{"name":"needed","type":"uint256","internalType":"uint256"}]},{"type":"error","name":"ERC20InsufficientBalance","inputs":[{"name":"sender","type":"address","internalType":"address"},{"name":"balance","type":"uint256","internalType":"uint256"},{"name":"needed","type":"uint256","internalType":"uint256"}]},{"type":"error","name":"ERC20InvalidApprover","inputs":[{"name":"approver","type":"address","internalType":"address"}]},{"type":"error","name":"ERC20InvalidReceiver","inputs":[{"name":"receiver","type":"address","internalType":"address"}]},{"type":"error","name":"ERC20InvalidSender","inputs":[{"name":"sender","type":"address","internalType":"address"}]},{"type":"error","name":"ERC20InvalidSpender","inputs":[{"name":"spender","type":"address","internalType":"address"}]},{"type":"error","name":"ERC2612ExpiredSignature","inputs":[{"name":"deadline","type":"uint256","internalType":"uint256"}]},{"type":"error","name":"ERC2612InvalidSigner","inputs":[{"name":"signer","type":"address","internalType":"address"},{"name":"owner","type":"address","internalType":"address"}]},{"type":"error","name":"InvalidAccountNonce","inputs":[{"name":"account","type":"address","internalType":"address"},{"name":"currentNonce","type":"uint256","internalType":"uint256"}]},{"type":"error","name":"InvalidShortString","inputs":[]},{"type":"error","name":"OwnableInvalidOwner","inputs":[{"name":"owner","type":"address","internalType":"address"}]},{"type":"error","name":"OwnableUnauthorizedAccount","inputs":[{"name":"account","type":"address","internalType":"address"}]},{"type":"error","name":"StringTooLong","inputs":[{"name":"str","type":"string","internalType":"string"}]}],"bytecode":{"object":"0x610160604052348015610010575f5ffd5b506040516130803803806130808339818101604052810190610032919061081a565b3384806040518060400160405280600181526020017f31000000000000000000000000000000000000000000000000000000000000008152508787816003908161007c9190610abd565b50806004908161008c9190610abd565b5050506100a36005836101ee60201b90919060201c565b61012081815250506100bf6006826101ee60201b90919060201c565b6101408181525050818051906020012060e08181525050808051906020012061010081815250504660a081815250506100fc61023b60201b60201c565b608081815250503073ffffffffffffffffffffffffffffffffffffffff1660c08173ffffffffffffffffffffffffffffffffffffffff16815250505050505f73ffffffffffffffffffffffffffffffffffffffff168173ffffffffffffffffffffffffffffffffffffffff16036101aa575f6040517f1e4fbdf70000000000000000000000000000000000000000000000000000000081526004016101a19190610bcb565b60405180910390fd5b6101b98161029560201b60201c565b5081600860146101000a81548160ff021916908360ff1602179055506101e5338261035860201b60201c565b50505050610e05565b5f60208351101561020f57610208836103dd60201b60201c565b9050610235565b8261021f8361044260201b60201c565b5f01908161022d9190610abd565b5060ff5f1b90505b92915050565b5f7f8b73c3c69bb8fe3d512ecc4cf759cc79239f7b179b0ffacaa9a75d522b39400f60e05161010051463060405160200161027a959493929190610c0b565b60405160208183030381529060405280519060200120905090565b5f60085f9054906101000a900473ffffffffffffffffffffffffffffffffffffffff1690508160085f6101000a81548173ffffffffffffffffffffffffffffffffffffffff021916908373ffffffffffffffffffffffffffffffffffffffff1602179055508173ffffffffffffffffffffffffffffffffffffffff168173ffffffffffffffffffffffffffffffffffffffff167f8be0079c531659141344cd1fd0a4f28419497f9722a3daafe3b4186f6b6457e060405160405180910390a35050565b5f73ffffffffffffffffffffffffffffffffffffffff168273ffffffffffffffffffffffffffffffffffffffff16036103c8575f6040517fec442f050000000000000000000000000000000000000000000000000000000081526004016103bf9190610bcb565b60405180910390fd5b6103d95f838361044b60201b60201c565b5050565b5f5f829050601f8151111561042957826040517f305a27a90000000000000000000000000000000000000000000000000000000081526004016104209190610ca4565b60405180910390fd5b80518161043590610cf1565b5f1c175f1b915050919050565b5f819050919050565b5f73ffffffffffffffffffffffffffffffffffffffff168373ffffffffffffffffffffffffffffffffffffffff160361049b578060025f82825461048f9190610d84565b92505081905550610569565b5f5f5f8573ffffffffffffffffffffffffffffffffffffffff1673ffffffffffffffffffffffffffffffffffffffff1681526020019081526020015f2054905081811015610524578381836040517fe450d38c00000000000000000000000000000000000000000000000000000000815260040161051b93929190610db7565b60405180910390fd5b8181035f5f8673ffffffffffffffffffffffffffffffffffffffff1673ffffffffffffffffffffffffffffffffffffffff1681526020019081526020015f2081905550505b5f73ffffffffffffffffffffffffffffffffffffffff168273ffffffffffffffffffffffffffffffffffffffff16036105b0578060025f82825403925050819055506105fa565b805f5f8473ffffffffffffffffffffffffffffffffffffffff1673ffffffffffffffffffffffffffffffffffffffff1681526020019081526020015f205f82825401925050819055505b8173ffffffffffffffffffffffffffffffffffffffff168373ffffffffffffffffffffffffffffffffffffffff167fddf252ad1be2c89b69c2b068fc378daa952ba7f163c4a11628f55a4df523b3ef836040516106579190610dec565b60405180910390a3505050565b5f604051905090565b5f5ffd5b5f5ffd5b5f5ffd5b5f5ffd5b5f601f19601f8301169050919050565b7f4e487b71000000000000000000000000000000000000000000000000000000005f52604160045260245ffd5b6106c38261067d565b810181811067ffffffffffffffff821117156106e2576106e161068d565b5b80604052505050565b5f6106f4610664565b905061070082826106ba565b919050565b5f67ffffffffffffffff82111561071f5761071e61068d565b5b6107288261067d565b9050602081019050919050565b8281835e5f83830152505050565b5f61075561075084610705565b6106eb565b90508281526020810184848401111561077157610770610679565b5b61077c848285610735565b509392505050565b5f82601f83011261079857610797610675565b5b81516107a8848260208601610743565b91505092915050565b5f60ff82169050919050565b6107c6816107b1565b81146107d0575f5ffd5b50565b5f815190506107e1816107bd565b92915050565b5f819050919050565b6107f9816107e7565b8114610803575f5ffd5b50565b5f81519050610814816107f0565b92915050565b5f5f5f5f608085870312156108325761083161066d565b5b5f85015167ffffffffffffffff81111561084f5761084e610671565b5b61085b87828801610784565b945050602085015167ffffffffffffffff81111561087c5761087b610671565b5b61088887828801610784565b9350506040610899878288016107d3565b92505060606108aa87828801610806565b91505092959194509250565b5f81519050919050565b7f4e487b71000000000000000000000000000000000000000000000000000000005f52602260045260245ffd5b5f600282049050600182168061090457607f821691505b602082108103610917576109166108c0565b5b50919050565b5f819050815f5260205f209050919050565b5f6020601f8301049050919050565b5f82821b905092915050565b5f600883026109797fffffffffffffffffffffffffffffffffffffffffffffffffffffffffffffffff8261093e565b610983868361093e565b95508019841693508086168417925050509392505050565b5f819050919050565b5f6109be6109b96109b4846107e7565b61099b565b6107e7565b9050919050565b5f819050919050565b6109d7836109a4565b6109eb6109e3826109c5565b84845461094a565b825550505050565b5f5f905090565b610a026109f3565b610a0d8184846109ce565b505050565b5b81811015610a3057610a255f826109fa565b600181019050610a13565b5050565b601f821115610a7557610a468161091d565b610a4f8461092f565b81016020851015610a5e578190505b610a72610a6a8561092f565b830182610a12565b50505b505050565b5f82821c905092915050565b5f610a955f1984600802610a7a565b1980831691505092915050565b5f610aad8383610a86565b9150826002028217905092915050565b610ac6826108b6565b67ffffffffffffffff811115610adf57610ade61068d565b5b610ae982546108ed565b610af4828285610a34565b5f60209050601f831160018114610b25575f8415610b13578287015190505b610b1d8582610aa2565b865550610b84565b601f198416610b338661091d565b5f5b82811015610b5a57848901518255600182019150602085019450602081019050610b35565b86831015610b775784890151610b73601f891682610a86565b8355505b6001600288020188555050505b505050505050565b5f73ffffffffffffffffffffffffffffffffffffffff82169050919050565b5f610bb582610b8c565b9050919050565b610bc581610bab565b82525050565b5f602082019050610bde5f830184610bbc565b92915050565b5f819050919050565b610bf681610be4565b82525050565b610c05816107e7565b82525050565b5f60a082019050610c1e5f830188610bed565b610c2b6020830187610bed565b610c386040830186610bed565b610c456060830185610bfc565b610c526080830184610bbc565b9695505050505050565b5f82825260208201905092915050565b5f610c76826108b6565b610c808185610c5c565b9350610c90818560208601610735565b610c998161067d565b840191505092915050565b5f6020820190508181035f830152610cbc8184610c6c565b905092915050565b5f81519050919050565b5f819050602082019050919050565b5f610ce88251610be4565b80915050919050565b5f610cfb82610cc4565b82610d0584610cce565b9050610d1081610cdd565b92506020821015610d5057610d4b7fffffffffffffffffffffffffffffffffffffffffffffffffffffffffffffffff8360200360080261093e565b831692505b5050919050565b7f4e487b71000000000000000000000000000000000000000000000000000000005f52601160045260245ffd5b5f610d8e826107e7565b9150610d99836107e7565b9250828201905080821115610db157610db0610d57565b5b92915050565b5f606082019050610dca5f830186610bbc565b610dd76020830185610bfc565b610de46040830184610bfc565b949350505050565b5f602082019050610dff5f830184610bfc565b92915050565b60805160a05160c05160e05161010051610120516101405161222a610e565f395f610e5401525f610e1901525f61134d01525f61132c01525f610b4e01525f610ba401525f610bcd015261222a5ff3fe608060405234801561000f575f5ffd5b506004361061011f575f3560e01c80637ecebe00116100ab578063d505accf1161006f578063d505accf14610311578063dd62ed3e1461032d578063de5f72fd1461035d578063def2981f14610367578063f2fde38b146103835761011f565b80637ecebe001461025157806384b0196e146102815780638da5cb5b146102a557806395d89b41146102c3578063a9059cbb146102e15761011f565b8063313ce567116100f2578063313ce567146101bf5780633644e515146101dd57806340c10f19146101fb57806370a0823114610217578063715018a6146102475761011f565b806306fdde0314610123578063095ea7b31461014157806318160ddd1461017157806323b872dd1461018f575b5f5ffd5b61012b61039f565b6040516101389190611803565b60405180910390f35b61015b600480360381019061015691906118b8565b61042f565b6040516101689190611910565b60405180910390f35b610179610451565b6040516101869190611938565b60405180910390f35b6101a960048036038101906101a49190611951565b61045a565b6040516101b69190611910565b60405180910390f35b6101c7610488565b6040516101d491906119bc565b60405180910390f35b6101e561049e565b6040516101f291906119ed565b60405180910390f35b610215600480360381019061021091906118b8565b6104ac565b005b610231600480360381019061022c9190611a06565b6104c2565b60405161023e9190611938565b60405180910390f35b61024f610507565b005b61026b60048036038101906102669190611a06565b61051a565b6040516102789190611938565b60405180910390f35b61028961052b565b60405161029c9796959493929190611b31565b60405180910390f35b6102ad6105d0565b6040516102ba9190611bb3565b60405180910390f35b6102cb6105f8565b6040516102d89190611803565b60405180910390f35b6102fb60048036038101906102f691906118b8565b610688565b6040516103089190611910565b60405180910390f35b61032b60048036038101906103269190611c20565b6106aa565b005b61034760048036038101906103429190611cbd565b6107ef565b6040516103549190611938565b60405180910390f35b610365610871565b005b610381600480360381019061037c9190611d5c565b6108a8565b005b61039d60048036038101906103989190611a06565b61092b565b005b6060600380546103ae90611dd4565b80601f01602080910402602001604051908101604052809291908181526020018280546103da90611dd4565b80156104255780601f106103fc57610100808354040283529160200191610425565b820191905f5260205f20905b81548152906001019060200180831161040857829003601f168201915b5050505050905090565b5f5f6104396109af565b90506104468185856109b6565b600191505092915050565b5f600254905090565b5f5f6104646109af565b90506104718582856109c8565b61047c858585610a5b565b60019150509392505050565b5f600860149054906101000a900460ff16905090565b5f6104a7610b4b565b905090565b6104b4610c01565b6104be8282610c88565b5050565b5f5f5f8373ffffffffffffffffffffffffffffffffffffffff1673ffffffffffffffffffffffffffffffffffffffff1681526020019081526020015f20549050919050565b61050f610c01565b6105185f610d07565b565b5f61052482610dca565b9050919050565b5f6060805f5f5f606061053c610e10565b610544610e4b565b46305f5f1b5f67ffffffffffffffff81111561056357610562611e04565b5b6040519080825280602002602001820160405280156105915781602001602082028036833780820191505090505b507f0f00000000000000000000000000000000000000000000000000000000000000959493929190965096509650965096509650965090919293949596565b5f60085f9054906101000a900473ffffffffffffffffffffffffffffffffffffffff16905090565b60606004805461060790611dd4565b80601f016020809104026020016040519081016040528092919081815260200182805461063390611dd4565b801561067e5780601f106106555761010080835404028352916020019161067e565b820191905f5260205f20905b81548152906001019060200180831161066157829003601f168201915b5050505050905090565b5f5f6106926109af565b905061069f818585610a5b565b600191505092915050565b834211156106ef57836040517f627913020000000000000000000000000000000000000000000000000000000081526004016106e69190611938565b60405180910390fd5b5f7f6e71edae12b1b97f4d1f60370fef10105fa2faae0126114a169c64845d6126c988888861071d8c610e86565b8960405160200161073396959493929190611e31565b6040516020818303038152906040528051906020012090505f61075582610ed9565b90505f61076482878787610ef2565b90508973ffffffffffffffffffffffffffffffffffffffff168173ffffffffffffffffffffffffffffffffffffffff16146107d857808a6040517f4b800e460000000000000000000000000000000000000000000000000000000081526004016107cf929190611e90565b60405180910390fd5b6107e38a8a8a6109b6565b50505050505050505050565b5f60015f8473ffffffffffffffffffffffffffffffffffffffff1673ffffffffffffffffffffffffffffffffffffffff1681526020019081526020015f205f8373ffffffffffffffffffffffffffffffffffffffff1673ffffffffffffffffffffffffffffffffffffffff1681526020019081526020015f2054905092915050565b6108a633600860149054906101000a900460ff1660ff16600a6108949190612013565b6103e86108a1919061205d565b610c88565b565b5f600860149054906101000a900460ff1660ff16600a6108c89190612013565b6103e86108d5919061205d565b90505f5f90505b83839050811015610925576109188484838181106108fd576108fc61209e565b5b90506020020160208101906109129190611a06565b83610c88565b80806001019150506108dc565b50505050565b610933610c01565b5f73ffffffffffffffffffffffffffffffffffffffff168173ffffffffffffffffffffffffffffffffffffffff16036109a3575f6040517f1e4fbdf700000000000000000000000000000000000000000000000000000000815260040161099a9190611bb3565b60405180910390fd5b6109ac81610d07565b50565b5f33905090565b6109c38383836001610f20565b505050565b5f6109d384846107ef565b90507fffffffffffffffffffffffffffffffffffffffffffffffffffffffffffffffff811015610a555781811015610a46578281836040517ffb8f41b2000000000000000000000000000000000000000000000000000000008152600401610a3d939291906120cb565b60405180910390fd5b610a5484848484035f610f20565b5b50505050565b5f73ffffffffffffffffffffffffffffffffffffffff168373ffffffffffffffffffffffffffffffffffffffff1603610acb575f6040517f96c6fd1e000000000000000000000000000000000000000000000000000000008152600401610ac29190611bb3565b60405180910390fd5b5f73ffffffffffffffffffffffffffffffffffffffff168273ffffffffffffffffffffffffffffffffffffffff1603610b3b575f6040517fec442f05000000000000000000000000000000000000000000000000000000008152600401610b329190611bb3565b60405180910390fd5b610b468383836110ef565b505050565b5f7f000000000000000000000000000000000000000000000000000000000000000073ffffffffffffffffffffffffffffffffffffffff163073ffffffffffffffffffffffffffffffffffffffff16148015610bc657507f000000000000000000000000000000000000000000000000000000000000000046145b15610bf3577f00000000000000000000000000000000000000000000000000000000000000009050610bfe565b610bfb611308565b90505b90565b610c096109af565b73ffffffffffffffffffffffffffffffffffffffff16610c276105d0565b73ffffffffffffffffffffffffffffffffffffffff1614610c8657610c4a6109af565b6040517f118cdaa7000000000000000000000000000000000000000000000000000000008152600401610c7d9190611bb3565b60405180910390fd5b565b5f73ffffffffffffffffffffffffffffffffffffffff168273ffffffffffffffffffffffffffffffffffffffff1603610cf8575f6040517fec442f05000000000000000000000000000000000000000000000000000000008152600401610cef9190611bb3565b60405180910390fd5b610d035f83836110ef565b5050565b5f60085f9054906101000a900473ffffffffffffffffffffffffffffffffffffffff1690508160085f6101000a81548173ffffffffffffffffffffffffffffffffffffffff021916908373ffffffffffffffffffffffffffffffffffffffff1602179055508173ffffffffffffffffffffffffffffffffffffffff168173ffffffffffffffffffffffffffffffffffffffff167f8be0079c531659141344cd1fd0a4f28419497f9722a3daafe3b4186f6b6457e060405160405180910390a35050565b5f60075f8373ffffffffffffffffffffffffffffffffffffffff1673ffffffffffffffffffffffffffffffffffffffff1681526020019081526020015f20549050919050565b6060610e4660057f000000000000000000000000000000000000000000000000000000000000000061139d90919063ffffffff16565b905090565b6060610e8160067f000000000000000000000000000000000000000000000000000000000000000061139d90919063ffffffff16565b905090565b5f60075f8373ffffffffffffffffffffffffffffffffffffffff1673ffffffffffffffffffffffffffffffffffffffff1681526020019081526020015f205f815480929190600101919050559050919050565b5f610eeb610ee5610b4b565b8361144a565b9050919050565b5f5f5f5f610f028888888861148a565b925092509250610f128282611571565b829350505050949350505050565b5f73ffffffffffffffffffffffffffffffffffffffff168473ffffffffffffffffffffffffffffffffffffffff1603610f90575f6040517fe602df05000000000000000000000000000000000000000000000000000000008152600401610f879190611bb3565b60405180910390fd5b5f73ffffffffffffffffffffffffffffffffffffffff168373ffffffffffffffffffffffffffffffffffffffff1603611000575f6040517f94280d62000000000000000000000000000000000000000000000000000000008152600401610ff79190611bb3565b60405180910390fd5b8160015f8673ffffffffffffffffffffffffffffffffffffffff1673ffffffffffffffffffffffffffffffffffffffff1681526020019081526020015f205f8573ffffffffffffffffffffffffffffffffffffffff1673ffffffffffffffffffffffffffffffffffffffff1681526020019081526020015f208190555080156110e9578273ffffffffffffffffffffffffffffffffffffffff168473ffffffffffffffffffffffffffffffffffffffff167f8c5be1e5ebec7d5bd14f71427d1e84f3dd0314c0f7b2291e5b200ac8c7c3b925846040516110e09190611938565b60405180910390a35b50505050565b5f73ffffffffffffffffffffffffffffffffffffffff168373ffffffffffffffffffffffffffffffffffffffff160361113f578060025f8282546111339190612100565b9250508190555061120d565b5f5f5f8573ffffffffffffffffffffffffffffffffffffffff1673ffffffffffffffffffffffffffffffffffffffff1681526020019081526020015f20549050818110156111c8578381836040517fe450d38c0000000000000000000000000000000000000000000000000000000081526004016111bf939291906120cb565b60405180910390fd5b8181035f5f8673ffffffffffffffffffffffffffffffffffffffff1673ffffffffffffffffffffffffffffffffffffffff1681526020019081526020015f2081905550505b5f73ffffffffffffffffffffffffffffffffffffffff168273ffffffffffffffffffffffffffffffffffffffff1603611254578060025f828254039250508190555061129e565b805f5f8473ffffffffffffffffffffffffffffffffffffffff1673ffffffffffffffffffffffffffffffffffffffff1681526020019081526020015f205f82825401925050819055505b8173ffffffffffffffffffffffffffffffffffffffff168373ffffffffffffffffffffffffffffffffffffffff167fddf252ad1be2c89b69c2b068fc378daa952ba7f163c4a11628f55a4df523b3ef836040516112fb9190611938565b60405180910390a3505050565b5f7f8b73c3c69bb8fe3d512ecc4cf759cc79239f7b179b0ffacaa9a75d522b39400f7f00000000000000000000000000000000000000000000000000000000000000007f00000000000000000000000000000000000000000000000000000000000000004630604051602001611382959493929190612133565b60405160208183030381529060405280519060200120905090565b606060ff5f1b83146113b9576113b2836116d3565b9050611444565b8180546113c590611dd4565b80601f01602080910402602001604051908101604052809291908181526020018280546113f190611dd4565b801561143c5780601f106114135761010080835404028352916020019161143c565b820191905f5260205f20905b81548152906001019060200180831161141f57829003601f168201915b505050505090505b92915050565b5f6040517f190100000000000000000000000000000000000000000000000000000000000081528360028201528260228201526042812091505092915050565b5f5f5f7f7fffffffffffffffffffffffffffffff5d576e7357a4501ddfe92f46681b20a0845f1c11156114c6575f600385925092509250611567565b5f6001888888886040515f81526020016040526040516114e99493929190612184565b6020604051602081039080840390855afa158015611509573d5f5f3e3d5ffd5b5050506020604051035190505f73ffffffffffffffffffffffffffffffffffffffff168173ffffffffffffffffffffffffffffffffffffffff160361155a575f60015f5f1b93509350935050611567565b805f5f5f1b935093509350505b9450945094915050565b5f6003811115611584576115836121c7565b5b826003811115611597576115966121c7565b5b03156116cf57600160038111156115b1576115b06121c7565b5b8260038111156115c4576115c36121c7565b5b036115fb576040517ff645eedf00000000000000000000000000000000000000000000000000000000815260040160405180910390fd5b6002600381111561160f5761160e6121c7565b5b826003811115611622576116216121c7565b5b0361166657805f1c6040517ffce698f700000000000000000000000000000000000000000000000000000000815260040161165d9190611938565b60405180910390fd5b600380811115611679576116786121c7565b5b82600381111561168c5761168b6121c7565b5b036116ce57806040517fd78bce0c0000000000000000000000000000000000000000000000000000000081526004016116c591906119ed565b60405180910390fd5b5b5050565b60605f6116df83611745565b90505f602067ffffffffffffffff8111156116fd576116fc611e04565b5b6040519080825280601f01601f19166020018201604052801561172f5781602001600182028036833780820191505090505b5090508181528360208201528092505050919050565b5f5f60ff835f1c169050601f81111561178a576040517fb3512b0c00000000000000000000000000000000000000000000000000000000815260040160405180910390fd5b80915050919050565b5f81519050919050565b5f82825260208201905092915050565b8281835e5f83830152505050565b5f601f19601f8301169050919050565b5f6117d582611793565b6117df818561179d565b93506117ef8185602086016117ad565b6117f8816117bb565b840191505092915050565b5f6020820190508181035f83015261181b81846117cb565b905092915050565b5f5ffd5b5f5ffd5b5f73ffffffffffffffffffffffffffffffffffffffff82169050919050565b5f6118548261182b565b9050919050565b6118648161184a565b811461186e575f5ffd5b50565b5f8135905061187f8161185b565b92915050565b5f819050919050565b61189781611885565b81146118a1575f5ffd5b50565b5f813590506118b28161188e565b92915050565b5f5f604083850312156118ce576118cd611823565b5b5f6118db85828601611871565b92505060206118ec858286016118a4565b9150509250929050565b5f8115159050919050565b61190a816118f6565b82525050565b5f6020820190506119235f830184611901565b92915050565b61193281611885565b82525050565b5f60208201905061194b5f830184611929565b92915050565b5f5f5f6060848603121561196857611967611823565b5b5f61197586828701611871565b935050602061198686828701611871565b9250506040611997868287016118a4565b9150509250925092565b5f60ff82169050919050565b6119b6816119a1565b82525050565b5f6020820190506119cf5f8301846119ad565b92915050565b5f819050919050565b6119e7816119d5565b82525050565b5f602082019050611a005f8301846119de565b92915050565b5f60208284031215611a1b57611a1a611823565b5b5f611a2884828501611871565b91505092915050565b5f7fff0000000000000000000000000000000000000000000000000000000000000082169050919050565b611a6581611a31565b82525050565b611a748161184a565b82525050565b5f81519050919050565b5f82825260208201905092915050565b5f819050602082019050919050565b611aac81611885565b82525050565b5f611abd8383611aa3565b60208301905092915050565b5f602082019050919050565b5f611adf82611a7a565b611ae98185611a84565b9350611af483611a94565b805f5b83811015611b24578151611b0b8882611ab2565b9750611b1683611ac9565b925050600181019050611af7565b5085935050505092915050565b5f60e082019050611b445f83018a611a5c565b8181036020830152611b5681896117cb565b90508181036040830152611b6a81886117cb565b9050611b796060830187611929565b611b866080830186611a6b565b611b9360a08301856119de565b81810360c0830152611ba58184611ad5565b905098975050505050505050565b5f602082019050611bc65f830184611a6b565b92915050565b611bd5816119a1565b8114611bdf575f5ffd5b50565b5f81359050611bf081611bcc565b92915050565b611bff816119d5565b8114611c09575f5ffd5b50565b5f81359050611c1a81611bf6565b92915050565b5f5f5f5f5f5f5f60e0888a031215611c3b57611c3a611823565b5b5f611c488a828b01611871565b9750506020611c598a828b01611871565b9650506040611c6a8a828b016118a4565b9550506060611c7b8a828b016118a4565b9450506080611c8c8a828b01611be2565b93505060a0611c9d8a828b01611c0c565b92505060c0611cae8a828b01611c0c565b91505092959891949750929550565b5f5f60408385031215611cd357611cd2611823565b5b5f611ce085828601611871565b9250506020611cf185828601611871565b9150509250929050565b5f5ffd5b5f5ffd5b5f5ffd5b5f5f83601f840112611d1c57611d1b611cfb565b5b8235905067ffffffffffffffff811115611d3957611d38611cff565b5b602083019150836020820283011115611d5557611d54611d03565b5b9250929050565b5f5f60208385031215611d7257611d71611823565b5b5f83013567ffffffffffffffff811115611d8f57611d8e611827565b5b611d9b85828601611d07565b92509250509250929050565b7f4e487b71000000000000000000000000000000000000000000000000000000005f52602260045260245ffd5b5f6002820490506001821680611deb57607f821691505b602082108103611dfe57611dfd611da7565b5b50919050565b7f4e487b71000000000000000000000000000000000000000000000000000000005f52604160045260245ffd5b5f60c082019050611e445f8301896119de565b611e516020830188611a6b565b611e5e6040830187611a6b565b611e6b6060830186611929565b611e786080830185611929565b611e8560a0830184611929565b979650505050505050565b5f604082019050611ea35f830185611a6b565b611eb06020830184611a6b565b9392505050565b7f4e487b71000000000000000000000000000000000000000000000000000000005f52601160045260245ffd5b5f8160011c9050919050565b5f5f8291508390505b6001851115611f3957808604811115611f1557611f14611eb7565b5b6001851615611f245780820291505b8081029050611f3285611ee4565b9450611ef9565b94509492505050565b5f82611f51576001905061200c565b81611f5e575f905061200c565b8160018114611f745760028114611f7e57611fad565b600191505061200c565b60ff841115611f9057611f8f611eb7565b5b8360020a915084821115611fa757611fa6611eb7565b5b5061200c565b5060208310610133831016604e8410600b8410161715611fe25782820a905083811115611fdd57611fdc611eb7565b5b61200c565b611fef8484846001611ef0565b9250905081840481111561200657612005611eb7565b5b81810290505b9392505050565b5f61201d82611885565b915061202883611885565b92506120557fffffffffffffffffffffffffffffffffffffffffffffffffffffffffffffffff8484611f42565b905092915050565b5f61206782611885565b915061207283611885565b925082820261208081611885565b9150828204841483151761209757612096611eb7565b5b5092915050565b7f4e487b71000000000000000000000000000000000000000000000000000000005f52603260045260245ffd5b5f6060820190506120de5f830186611a6b565b6120eb6020830185611929565b6120f86040830184611929565b949350505050565b5f61210a82611885565b915061211583611885565b925082820190508082111561212d5761212c611eb7565b5b92915050565b5f60a0820190506121465f8301886119de565b61215360208301876119de565b61216060408301866119de565b61216d6060830185611929565b61217a6080830184611a6b565b9695505050505050565b5f6080820190506121975f8301876119de565b6121a460208301866119ad565b6121b160408301856119de565b6121be60608301846119de565b95945050505050565b7f4e487b71000000000000000000000000000000000000000000000000000000005f52602160045260245ffdfea26469706673582212204d53bb5fa2e480133a2831ecd6ed3f06042b38ee692a2d90f33462246d54316164736f6c634300081e0033","linkReferences":{}},"methodIdentifiers":{"DOMAIN_SEPARATOR()":"3644e515","allowance(address,address)":"dd62ed3e","approve(address,uint256)":"095ea7b3","balanceOf(address)":"70a08231","batchFaucet(address[])":"def2981f","decimals()":"313ce567","eip712Domain()":"84b0196e","faucet()":"de5f72fd","mint(address,uint256)":"40c10f19","name()":"06fdde03","nonces(address)":"7ecebe00","owner()":"8da5cb5b","permit(address,address,uint256,uint256,uint8,bytes32,bytes32)":"d505accf","renounceOwnership()":"715018a6","symbol()":"95d89b41","totalSupply()":"18160ddd","transfer(address,uint256)":"a9059cbb","transferFrom(address,address,uint256)":"23b872dd","transferOwnership(address)":"f2fde38b"},"id":36}