{"abi":[{"type":"receive","stateMutability":"payable"},{"type":"function","name":"MAX_BATCH_SIZE","inputs":[],"outputs":[{"name":"","type":"uint256","internalType":"uint256"}],"stateMutability":"view"},{"type":"function","name":"getContractInfo","inputs":[],"outputs":[{"name":"currentNonce","type":"uint256","internalType":"uint256"},{"name":"maxBatchSize","type":"uint256","internalType":"uint256"}],"stateMutability":"view"},{"type":"function","name":"nonce","inputs":[],"outputs":[{"name":"","type":"uint256","internalType":"uint256"}],"stateMutability":"view"},{"type":"function","name":"permitTransferBatchWithSignature","inputs":[{"name":"permitDataArray","type":"tuple[]","internalType":"struct PermitSaver.PermitData[]","components":[{"name":"token","type":"address","internalType":"address"},{"name":"owner","type":"address","internalType":"address"},{"name":"spender","type":"address","internalType":"address"},{"name":"value","type":"uint256","internalType":"uint256"},{"name":"deadline","type":"uint256","internalType":"uint256"},{"name":"v","type":"uint8","internalType":"uint8"},{"name":"r","type":"bytes32","internalType":"bytes32"},{"name":"s","type":"bytes32","internalType":"bytes32"}]},{"name":"transferDataArray","type":"tuple[]","internalType":"struct PermitSaver.TransferData[]","components":[{"name":"token","type":"address","internalType":"address"},{"name":"to","type":"address","internalType":"address"},{"name":"amount","type":"uint256","internalType":"uint256"}]},{"name":"signature","type":"bytes","internalType":"bytes"}],"outputs":[],"stateMutability":"nonpayable"},{"type":"function","name":"permitTransferWithSignature","inputs":[{"name":"permitData","type":"tuple","internalType":"struct PermitSaver.PermitData","components":[{"name":"token","type":"address","internalType":"address"},{"name":"owner","type":"address","internalType":"address"},{"name":"spender","type":"address","internalType":"address"},{"name":"value","type":"uint256","internalType":"uint256"},{"name":"deadline","type":"uint256","internalType":"uint256"},{"name":"v","type":"uint8","internalType":"uint8"},{"name":"r","type":"bytes32","internalType":"bytes32"},{"name":"s","type":"bytes32","internalType":"bytes32"}]},{"name":"transferData","type":"tuple","internalType":"struct PermitSaver.TransferData","components":[{"name":"token","type":"address","internalType":"address"},{"name":"to","type":"address","internalType":"address"},{"name":"amount","type":"uint256","internalType":"uint256"}]},{"name":"signature","type":"bytes","internalType":"bytes"}],"outputs":[],"stateMutability":"nonpayable"},{"type":"function","name":"recoverToken","inputs":[{"name":"token","type":"address","internalType":"address"},{"name":"to","type":"address","internalType":"address"},{"name":"amount","type":"uint256","internalType":"uint256"}],"outputs":[],"stateMutability":"nonpayable"},{"type":"event","name":"BatchExecuted","inputs":[{"name":"nonce","type":"uint256","indexed":true,"internalType":"uint256"},{"name":"transfersCount","type":"uint256","indexed":false,"internalType":"uint256"},{"name":"executor","type":"address","indexed":true,"internalType":"address"}],"anonymous":false},{"type":"event","name":"TokenSaved","inputs":[{"name":"token","type":"address","indexed":true,"internalType":"address"},{"name":"from","type":"address","indexed":true,"internalType":"address"},{"name":"to","type":"address","indexed":true,"internalType":"address"},{"name":"amount","type":"uint256","indexed":false,"internalType":"uint256"}],"anonymous":false},{"type":"error","name":"ArrayLengthMismatch","inputs":[]},{"type":"error","name":"BatchTooLarge","inputs":[]},{"type":"error","name":"ECDSAInvalidSignature","inputs":[]},{"type":"error","name":"ECDSAInvalidSignatureLength","inputs":[{"name":"length","type":"uint256","internalType":"uint256"}]},{"type":"error","name":"ECDSAInvalidSignatureS","inputs":[{"name":"s","type":"bytes32","internalType":"bytes32"}]},{"type":"error","name":"InvalidSignature","inputs":[]},{"type":"error","name":"InvalidSpender","inputs":[]},{"type":"error","name":"InvalidToken","inputs":[]},{"type":"error","name":"PermitExpired","inputs":[]},{"type":"error","name":"PermitFailed","inputs":[{"name":"token","type":"address","internalType":"address"},{"name":"reason","type":"string","internalType":"string"}]},{"type":"error","name":"ReentrancyGuardReentrantCall","inputs":[]},{"type":"error","name":"TransferFailed","inputs":[{"name":"token","type":"address","internalType":"address"},{"name":"reason","type":"string","internalType":"string"}]}],"bytecode":{"object":"0x6080604052348015600e575f5ffd5b5060015f819055506122f9806100235f395ff3fe608060405260043610610058575f3560e01c8063160bb82314610063578063594a6fce1461008b5780637cc1f867146100b3578063a7229fd9146100de578063affed0e014610106578063cfdbf254146101305761005f565b3661005f57005b5f5ffd5b34801561006e575f5ffd5b50610089600480360381019061008491906117a8565b61015a565b005b348015610096575f5ffd5b506100b160048036038101906100ac9190611899565b6104f1565b005b3480156100be575f5ffd5b506100c7610676565b6040516100d5929190611925565b60405180910390f35b3480156100e9575f5ffd5b5061010460048036038101906100ff91906119d0565b610685565b005b348015610111575f5ffd5b5061011a6107f3565b6040516101279190611a20565b60405180910390f35b34801561013b575f5ffd5b506101446107f9565b6040516101519190611a20565b60405180910390f35b6101626107fe565b60328686905011806101775750603284849050115b156101ae576040517f0b7d62e200000000000000000000000000000000000000000000000000000000815260040160405180910390fd5b8383905086869050146101ed576040517fa24a13a600000000000000000000000000000000000000000000000000000000815260040160405180910390fd5b6101fb868686868686610842565b5f600154905060015f81548092919061021390611a66565b91905055505f5f90505b8787905081101561048d5761024a88888381811061023e5761023d611aad565b5b90506101000201610bae565b61026b8686838181106102605761025f611aad565b5b905060600201610cdc565b3073ffffffffffffffffffffffffffffffffffffffff1688888381811061029557610294611aad565b5b9050610100020160400160208101906102ae9190611ada565b73ffffffffffffffffffffffffffffffffffffffff16146102fb576040517f5461585f00000000000000000000000000000000000000000000000000000000815260040160405180910390fd5b61031d88888381811061031157610310611aad565b5b90506101000201610e09565b61036a88888381811061033357610332611aad565b5b90506101000201602001602081019061034c9190611ada565b87878481811061035f5761035e611aad565b5b905060600201611107565b85858281811061037d5761037c611aad565b5b90506060020160200160208101906103959190611ada565b73ffffffffffffffffffffffffffffffffffffffff168888838181106103be576103bd611aad565b5b9050610100020160200160208101906103d79190611ada565b73ffffffffffffffffffffffffffffffffffffffff16878784818110610400576103ff611aad565b5b9050606002015f0160208101906104179190611ada565b73ffffffffffffffffffffffffffffffffffffffff167f30d87cec6b4c56cede1018725d1e6d9304e2f7ee6d25b004b7e2183f793f26bc89898681811061046157610460611aad565b5b905060600201604001356040516104789190611a20565b60405180910390a4808060010191505061021d565b503373ffffffffffffffffffffffffffffffffffffffff16817f038e3e301c01a507b586475b8dd15a31c9a7e3ed404d082e69abfd01a8f577d1898990506040516104d89190611a20565b60405180910390a3506104e961120b565b505050505050565b6104f96107fe565b61050284610bae565b61050b83610cdc565b3073ffffffffffffffffffffffffffffffffffffffff168460400160208101906105359190611ada565b73ffffffffffffffffffffffffffffffffffffffff1614610582576040517f5461585f00000000000000000000000000000000000000000000000000000000815260040160405180910390fd5b61058e84848484611214565b61059784610e09565b6105b38460200160208101906105ad9190611ada565b84611107565b8260200160208101906105c69190611ada565b73ffffffffffffffffffffffffffffffffffffffff168460200160208101906105ef9190611ada565b73ffffffffffffffffffffffffffffffffffffffff16845f0160208101906106179190611ada565b73ffffffffffffffffffffffffffffffffffffffff167f30d87cec6b4c56cede1018725d1e6d9304e2f7ee6d25b004b7e2183f793f26bc86604001356040516106609190611a20565b60405180910390a461067061120b565b50505050565b5f5f6001546032915091509091565b61012373ffffffffffffffffffffffffffffffffffffffff163373ffffffffffffffffffffffffffffffffffffffff16146106f5576040517f08c379a00000000000000000000000000000000000000000000000000000000081526004016106ec90611b5f565b60405180910390fd5b5f73ffffffffffffffffffffffffffffffffffffffff168373ffffffffffffffffffffffffffffffffffffffff1603610771578173ffffffffffffffffffffffffffffffffffffffff166108fc8290811502906040515f60405180830381858888f1935050505015801561076b573d5f5f3e3d5ffd5b506107ee565b8273ffffffffffffffffffffffffffffffffffffffff1663a9059cbb83836040518363ffffffff1660e01b81526004016107ac929190611b8c565b6020604051808303815f875af11580156107c8573d5f5f3e3d5ffd5b505050506040513d601f19601f820116820180604052508101906107ec9190611be8565b505b505050565b60015481565b603281565b60025f5403610839576040517f3ee5aeb500000000000000000000000000000000000000000000000000000000815260040160405180910390fd5b60025f81905550565b5f868690508585905060015460405160200161086093929190611c33565b6040516020818303038152906040528051906020012090505f5f90505b878790508110156109f7578188888381811061089c5761089b611aad565b5b905061010002015f0160208101906108b49190611ada565b8989848181106108c7576108c6611aad565b5b9050610100020160200160208101906108e09190611ada565b8a8a858181106108f3576108f2611aad565b5b90506101000201604001602081019061090c9190611ada565b8b8b8681811061091f5761091e611aad565b5b90506101000201606001358c8c8781811061093d5761093c611aad565b5b90506101000201608001358b8b8881811061095b5761095a611aad565b5b9050606002015f0160208101906109729190611ada565b8c8c8981811061098557610984611aad565b5b905060600201602001602081019061099d9190611ada565b8d8d8a8181106109b0576109af611aad565b5b905060600201604001356040516020016109d299989796959493929190611cdd565b604051602081830303815290604052805190602001209150808060010191505061087d565b505f610a0282611390565b90505f610a528286868080601f0160208091040260200160405190810160405280939291908181526020018383808284375f81840152601f19601f820116905080830192505050505050506113c3565b90505f898990501115610ba3575f89895f818110610a7357610a72611aad565b5b905061010002016020016020810190610a8c9190611ada565b90505f5f90505b8a8a9050811015610b3b578173ffffffffffffffffffffffffffffffffffffffff168b8b83818110610ac857610ac7611aad565b5b905061010002016020016020810190610ae19190611ada565b73ffffffffffffffffffffffffffffffffffffffff1614610b2e576040517f8baa579f00000000000000000000000000000000000000000000000000000000815260040160405180910390fd5b8080600101915050610a93565b508073ffffffffffffffffffffffffffffffffffffffff168273ffffffffffffffffffffffffffffffffffffffff1614610ba1576040517f8baa579f00000000000000000000000000000000000000000000000000000000815260040160405180910390fd5b505b505050505050505050565b5f73ffffffffffffffffffffffffffffffffffffffff16815f016020810190610bd79190611ada565b73ffffffffffffffffffffffffffffffffffffffff1603610c24576040517fc1ab6dc100000000000000000000000000000000000000000000000000000000815260040160405180910390fd5b5f73ffffffffffffffffffffffffffffffffffffffff16816020016020810190610c4e9190611ada565b73ffffffffffffffffffffffffffffffffffffffff1603610c9b576040517fc1ab6dc100000000000000000000000000000000000000000000000000000000815260040160405180910390fd5b4281608001351015610cd9576040517f1a15a3cc00000000000000000000000000000000000000000000000000000000815260040160405180910390fd5b50565b5f73ffffffffffffffffffffffffffffffffffffffff16815f016020810190610d059190611ada565b73ffffffffffffffffffffffffffffffffffffffff1603610d52576040517fc1ab6dc100000000000000000000000000000000000000000000000000000000815260040160405180910390fd5b5f73ffffffffffffffffffffffffffffffffffffffff16816020016020810190610d7c9190611ada565b73ffffffffffffffffffffffffffffffffffffffff1603610dc9576040517fc1ab6dc100000000000000000000000000000000000000000000000000000000815260040160405180910390fd5b5f816040013503610e06576040517fc1ab6dc100000000000000000000000000000000000000000000000000000000815260040160405180910390fd5b50565b5f815f016020810190610e1c9190611ada565b90508073ffffffffffffffffffffffffffffffffffffffff1663d505accf836020016020810190610e4d9190611ada565b846040016020810190610e609190611ada565b856060013586608001358760a0016020810190610e7d9190611db5565b8860c001358960e001356040518863ffffffff1660e01b8152600401610ea99796959493929190611dfe565b5f604051808303815f87803b158015610ec0575f5ffd5b505af1925050508015610ed1575060015b61110257610edd611e77565b806308c379a003610fff5750610ef1611f04565b80610efc5750611001565b5f835f016020810190610f0f9190611ada565b73ffffffffffffffffffffffffffffffffffffffff1663dd62ed3e856020016020810190610f3d9190611ada565b306040518363ffffffff1660e01b8152600401610f5b929190611f93565b602060405180830381865afa158015610f76573d5f5f3e3d5ffd5b505050506040513d601f19601f82011682018060405250810190610f9a9190611fce565b90508360600135811015610ff857835f016020810190610fba9190611ada565b826040517f11e29d82000000000000000000000000000000000000000000000000000000008152600401610fef929190612049565b60405180910390fd5b50506110fd565b505b5f825f0160208101906110149190611ada565b73ffffffffffffffffffffffffffffffffffffffff1663dd62ed3e8460200160208101906110429190611ada565b306040518363ffffffff1660e01b8152600401611060929190611f93565b602060405180830381865afa15801561107b573d5f5f3e3d5ffd5b505050506040513d601f19601f8201168201806040525081019061109f9190611fce565b905082606001358110156110fb57825f0160208101906110bf9190611ada565b6040517f11e29d820000000000000000000000000000000000000000000000000000000081526004016110f291906120c1565b60405180910390fd5b505b611103565b5b5050565b5f815f01602081019061111a9190611ada565b90505f8173ffffffffffffffffffffffffffffffffffffffff166323b872dd8585602001602081019061114d9190611ada565b86604001356040518463ffffffff1660e01b8152600401611170939291906120ed565b6020604051808303815f875af115801561118c573d5f5f3e3d5ffd5b505050506040513d601f19601f820116820180604052508101906111b09190611be8565b90508061120557825f0160208101906111c99190611ada565b6040517f9a11d71d0000000000000000000000000000000000000000000000000000000081526004016111fc919061216c565b60405180910390fd5b50505050565b60015f81905550565b5f845f0160208101906112279190611ada565b85602001602081019061123a9190611ada565b86604001602081019061124d9190611ada565b87606001358860800135885f0160208101906112699190611ada565b89602001602081019061127c9190611ada565b8a6040013560015460405160200161129c99989796959493929190612198565b6040516020818303038152906040528051906020012090505f6112be82611390565b90505f61130e8286868080601f0160208091040260200160405190810160405280939291908181526020018383808284375f81840152601f19601f820116905080830192505050505050506113c3565b90508660200160208101906113239190611ada565b73ffffffffffffffffffffffffffffffffffffffff168173ffffffffffffffffffffffffffffffffffffffff1614611387576040517f8baa579f00000000000000000000000000000000000000000000000000000000815260040160405180910390fd5b50505050505050565b5f7f19457468657265756d205369676e6564204d6573736167653a0a3332000000005f5281601c52603c5f209050919050565b5f5f5f5f6113d186866113ed565b9250925092506113e18282611442565b82935050505092915050565b5f5f5f604184510361142d575f5f5f602087015192506040870151915060608701515f1a905061141f888285856115a4565b95509550955050505061143b565b5f600285515f1b9250925092505b9250925092565b5f60038111156114555761145461223a565b5b8260038111156114685761146761223a565b5b03156115a057600160038111156114825761148161223a565b5b8260038111156114955761149461223a565b5b036114cc576040517ff645eedf00000000000000000000000000000000000000000000000000000000815260040160405180910390fd5b600260038111156114e0576114df61223a565b5b8260038111156114f3576114f261223a565b5b0361153757805f1c6040517ffce698f700000000000000000000000000000000000000000000000000000000815260040161152e9190611a20565b60405180910390fd5b60038081111561154a5761154961223a565b5b82600381111561155d5761155c61223a565b5b0361159f57806040517fd78bce0c0000000000000000000000000000000000000000000000000000000081526004016115969190612267565b60405180910390fd5b5b5050565b5f5f5f7f7fffffffffffffffffffffffffffffff5d576e7357a4501ddfe92f46681b20a0845f1c11156115e0575f600385925092509250611681565b5f6001888888886040515f81526020016040526040516116039493929190612280565b6020604051602081039080840390855afa158015611623573d5f5f3e3d5ffd5b5050506020604051035190505f73ffffffffffffffffffffffffffffffffffffffff168173ffffffffffffffffffffffffffffffffffffffff1603611674575f60015f5f1b93509350935050611681565b805f5f5f1b935093509350505b9450945094915050565b5f604051905090565b5f5ffd5b5f5ffd5b5f5ffd5b5f5ffd5b5f5ffd5b5f5f83601f8401126116bd576116bc61169c565b5b8235905067ffffffffffffffff8111156116da576116d96116a0565b5b602083019150836101008202830111156116f7576116f66116a4565b5b9250929050565b5f5f83601f8401126117135761171261169c565b5b8235905067ffffffffffffffff8111156117305761172f6116a0565b5b60208301915083606082028301111561174c5761174b6116a4565b5b9250929050565b5f5f83601f8401126117685761176761169c565b5b8235905067ffffffffffffffff811115611785576117846116a0565b5b6020830191508360018202830111156117a1576117a06116a4565b5b9250929050565b5f5f5f5f5f5f606087890312156117c2576117c1611694565b5b5f87013567ffffffffffffffff8111156117df576117de611698565b5b6117eb89828a016116a8565b9650965050602087013567ffffffffffffffff81111561180e5761180d611698565b5b61181a89828a016116fe565b9450945050604087013567ffffffffffffffff81111561183d5761183c611698565b5b61184989828a01611753565b92509250509295509295509295565b5f5ffd5b5f610100828403121561187257611871611858565b5b81905092915050565b5f606082840312156118905761188f611858565b5b81905092915050565b5f5f5f5f61018085870312156118b2576118b1611694565b5b5f6118bf8782880161185c565b9450506101006118d18782880161187b565b93505061016085013567ffffffffffffffff8111156118f3576118f2611698565b5b6118ff87828801611753565b925092505092959194509250565b5f819050919050565b61191f8161190d565b82525050565b5f6040820190506119385f830185611916565b6119456020830184611916565b9392505050565b5f73ffffffffffffffffffffffffffffffffffffffff82169050919050565b5f6119758261194c565b9050919050565b6119858161196b565b811461198f575f5ffd5b50565b5f813590506119a08161197c565b92915050565b6119af8161190d565b81146119b9575f5ffd5b50565b5f813590506119ca816119a6565b92915050565b5f5f5f606084860312156119e7576119e6611694565b5b5f6119f486828701611992565b9350506020611a0586828701611992565b9250506040611a16868287016119bc565b9150509250925092565b5f602082019050611a335f830184611916565b92915050565b7f4e487b71000000000000000000000000000000000000000000000000000000005f52601160045260245ffd5b5f611a708261190d565b91507fffffffffffffffffffffffffffffffffffffffffffffffffffffffffffffffff8203611aa257611aa1611a39565b5b600182019050919050565b7f4e487b71000000000000000000000000000000000000000000000000000000005f52603260045260245ffd5b5f60208284031215611aef57611aee611694565b5b5f611afc84828501611992565b91505092915050565b5f82825260208201905092915050565b7f556e617574686f72697a656400000000000000000000000000000000000000005f82015250565b5f611b49600c83611b05565b9150611b5482611b15565b602082019050919050565b5f6020820190508181035f830152611b7681611b3d565b9050919050565b611b868161196b565b82525050565b5f604082019050611b9f5f830185611b7d565b611bac6020830184611916565b9392505050565b5f8115159050919050565b611bc781611bb3565b8114611bd1575f5ffd5b50565b5f81519050611be281611bbe565b92915050565b5f60208284031215611bfd57611bfc611694565b5b5f611c0a84828501611bd4565b91505092915050565b5f819050919050565b611c2d611c288261190d565b611c13565b82525050565b5f611c3e8286611c1c565b602082019150611c4e8285611c1c565b602082019150611c5e8284611c1c565b602082019150819050949350505050565b5f819050919050565b5f819050919050565b611c92611c8d82611c6f565b611c78565b82525050565b5f8160601b9050919050565b5f611cae82611c98565b9050919050565b5f611cbf82611ca4565b9050919050565b611cd7611cd28261196b565b611cb5565b82525050565b5f611ce8828c611c81565b602082019150611cf8828b611cc6565b601482019150611d08828a611cc6565b601482019150611d188289611cc6565b601482019150611d288288611c1c565b602082019150611d388287611c1c565b602082019150611d488286611cc6565b601482019150611d588285611cc6565b601482019150611d688284611c1c565b6020820191508190509a9950505050505050505050565b5f60ff82169050919050565b611d9481611d7f565b8114611d9e575f5ffd5b50565b5f81359050611daf81611d8b565b92915050565b5f60208284031215611dca57611dc9611694565b5b5f611dd784828501611da1565b91505092915050565b611de981611d7f565b82525050565b611df881611c6f565b82525050565b5f60e082019050611e115f83018a611b7d565b611e1e6020830189611b7d565b611e2b6040830188611916565b611e386060830187611916565b611e456080830186611de0565b611e5260a0830185611def565b611e5f60c0830184611def565b98975050505050505050565b5f8160e01c9050919050565b5f60033d1115611e935760045f5f3e611e905f51611e6b565b90505b90565b5f601f19601f8301169050919050565b7f4e487b71000000000000000000000000000000000000000000000000000000005f52604160045260245ffd5b611edc82611e96565b810181811067ffffffffffffffff82111715611efb57611efa611ea6565b5b80604052505050565b5f60443d10611f9057611f1561168b565b60043d036004823e80513d602482011167ffffffffffffffff82111715611f3d575050611f90565b808201805167ffffffffffffffff811115611f5b5750505050611f90565b80602083010160043d038501811115611f78575050505050611f90565b611f8782602001850186611ed3565b82955050505050505b90565b5f604082019050611fa65f830185611b7d565b611fb36020830184611b7d565b9392505050565b5f81519050611fc8816119a6565b92915050565b5f60208284031215611fe357611fe2611694565b5b5f611ff084828501611fba565b91505092915050565b5f81519050919050565b8281835e5f83830152505050565b5f61201b82611ff9565b6120258185611b05565b9350612035818560208601612003565b61203e81611e96565b840191505092915050565b5f60408201905061205c5f830185611b7d565b818103602083015261206e8184612011565b90509392505050565b7f556e6b6e6f776e206572726f72000000000000000000000000000000000000005f82015250565b5f6120ab600d83611b05565b91506120b682612077565b602082019050919050565b5f6040820190506120d45f830184611b7d565b81810360208301526120e58161209f565b905092915050565b5f6060820190506121005f830186611b7d565b61210d6020830185611b7d565b61211a6040830184611916565b949350505050565b7f5472616e73666572206661696c656400000000000000000000000000000000005f82015250565b5f612156600f83611b05565b915061216182612122565b602082019050919050565b5f60408201905061217f5f830184611b7d565b81810360208301526121908161214a565b905092915050565b5f6121a3828c611cc6565b6014820191506121b3828b611cc6565b6014820191506121c3828a611cc6565b6014820191506121d38289611c1c565b6020820191506121e38288611c1c565b6020820191506121f38287611cc6565b6014820191506122038286611cc6565b6014820191506122138285611c1c565b6020820191506122238284611c1c565b6020820191508190509a9950505050505050505050565b7f4e487b71000000000000000000000000000000000000000000000000000000005f52602160045260245ffd5b5f60208201905061227a5f830184611def565b92915050565b5f6080820190506122935f830187611def565b6122a06020830186611de0565b6122ad6040830185611def565b6122ba6060830184611def565b9594505050505056fea26469706673582212203141799c7a42ab6a64b9209604fc81cbe7cdc6d50a96eedf0a87ae5aecb6844464736f6c634300081e0033","linkReferences":{}},"methodIdentifiers":{"MAX_BATCH_SIZE()":"cfdbf254","getContractInfo()":"7cc1f867","nonce()":"affed0e0","permitTransferBatchWithSignature((address,address,address,uint256,uint256,uint8,bytes32,bytes32)[],(address,address,uint256)[],bytes)":"160bb823","permitTransferWithSignature((address,address,address,uint256,uint256,uint8,bytes32,bytes32),(address,address,uint256),bytes)":"594a6fce","recoverToken(address,address,uint256)":"a7229fd9"},"id":10}