{"abi":[{"type":"receive","stateMutability":"payable"},{"type":"function","name":"MAX_BATCH_SIZE","inputs":[],"outputs":[{"name":"","type":"uint256","internalType":"uint256"}],"stateMutability":"view"},{"type":"function","name":"calculateETHNeeded","inputs":[{"name":"calls","type":"tuple[]","internalType":"struct EIP7702Saver.Call[]","components":[{"name":"to","type":"address","internalType":"address"},{"name":"value","type":"uint256","internalType":"uint256"},{"name":"data","type":"bytes","internalType":"bytes"}]}],"outputs":[{"name":"totalETH","type":"uint256","internalType":"uint256"}],"stateMutability":"pure"},{"type":"function","name":"emergencyWithdraw","inputs":[{"name":"token","type":"address","internalType":"address"},{"name":"amount","type":"uint256","internalType":"uint256"}],"outputs":[],"stateMutability":"nonpayable"},{"type":"function","name":"execute","inputs":[{"name":"calls","type":"tuple[]","internalType":"struct EIP7702Saver.Call[]","components":[{"name":"to","type":"address","internalType":"address"},{"name":"value","type":"uint256","internalType":"uint256"},{"name":"data","type":"bytes","internalType":"bytes"}]}],"outputs":[],"stateMutability":"payable"},{"type":"function","name":"execute","inputs":[{"name":"calls","type":"tuple[]","internalType":"struct EIP7702Saver.Call[]","components":[{"name":"to","type":"address","internalType":"address"},{"name":"value","type":"uint256","internalType":"uint256"},{"name":"data","type":"bytes","internalType":"bytes"}]},{"name":"signature","type":"bytes","internalType":"bytes"}],"outputs":[],"stateMutability":"payable"},{"type":"function","name":"getContractInfo","inputs":[],"outputs":[{"name":"currentNonce","type":"uint256","internalType":"uint256"},{"name":"maxBatchSize","type":"uint256","internalType":"uint256"}],"stateMutability":"view"},{"type":"function","name":"nonce","inputs":[],"outputs":[{"name":"","type":"uint256","internalType":"uint256"}],"stateMutability":"view"},{"type":"event","name":"BatchExecuted","inputs":[{"name":"nonce","type":"uint256","indexed":true,"internalType":"uint256"},{"name":"callsCount","type":"uint256","indexed":false,"internalType":"uint256"},{"name":"executor","type":"address","indexed":true,"internalType":"address"}],"anonymous":false},{"type":"event","name":"CallExecuted","inputs":[{"name":"sender","type":"address","indexed":true,"internalType":"address"},{"name":"to","type":"address","indexed":true,"internalType":"address"},{"name":"value","type":"uint256","indexed":false,"internalType":"uint256"},{"name":"data","type":"bytes","indexed":false,"internalType":"bytes"}],"anonymous":false},{"type":"error","name":"BatchTooLarge","inputs":[]},{"type":"error","name":"CallFailed","inputs":[{"name":"callIndex","type":"uint256","internalType":"uint256"},{"name":"returnData","type":"bytes","internalType":"bytes"}]},{"type":"error","name":"ECDSAInvalidSignature","inputs":[]},{"type":"error","name":"ECDSAInvalidSignatureLength","inputs":[{"name":"length","type":"uint256","internalType":"uint256"}]},{"type":"error","name":"ECDSAInvalidSignatureS","inputs":[{"name":"s","type":"bytes32","internalType":"bytes32"}]},{"type":"error","name":"InsufficientETH","inputs":[]},{"type":"error","name":"InvalidAuthority","inputs":[]},{"type":"error","name":"InvalidSignature","inputs":[]},{"type":"error","name":"ReentrancyGuardReentrantCall","inputs":[]}],"bytecode":{"object":"0x6080604052348015600e575f5ffd5b5060015f81905550611770806100235f395ff3fe608060405260043610610073575f3560e01c806395ccea671161004d57806395ccea67146100e1578063affed0e014610109578063b3cd782914610133578063cfdbf2541461016f5761007a565b80633f707e6b1461007e5780636171d1c91461009a5780637cc1f867146100b65761007a565b3661007a57005b5f5ffd5b61009860048036038101906100939190610d8e565b610199565b005b6100b460048036038101906100af9190610e2e565b61021c565b005b3480156100c1575f5ffd5b506100ca61037a565b6040516100d8929190610ec4565b60405180910390f35b3480156100ec575f5ffd5b5061010760048036038101906101029190610f6f565b610389565b005b348015610114575f5ffd5b5061011d610579565b60405161012a9190610fad565b60405180910390f35b34801561013e575f5ffd5b5061015960048036038101906101549190610d8e565b61057f565b6040516101669190610fad565b60405180910390f35b34801561017a575f5ffd5b506101836105da565b6040516101909190610fad565b60405180910390f35b6101a16105df565b3073ffffffffffffffffffffffffffffffffffffffff163373ffffffffffffffffffffffffffffffffffffffff1614610206576040517fded4370e00000000000000000000000000000000000000000000000000000000815260040160405180910390fd5b6102108282610623565b610218610801565b5050565b6102246105df565b6032848490501115610262576040517f0b7d62e200000000000000000000000000000000000000000000000000000000815260040160405180910390fd5b5f61026d858561080a565b90505f60015482604051602001610285929190611038565b6040516020818303038152906040528051906020012090505f6102a7826108ee565b90505f6102f78287878080601f0160208091040260200160405190810160405280939291908181526020018383808284375f81840152601f19601f82011690508083019250505050505050610921565b90503073ffffffffffffffffffffffffffffffffffffffff168173ffffffffffffffffffffffffffffffffffffffff161461035e576040517f8baa579f00000000000000000000000000000000000000000000000000000000815260040160405180910390fd5b6103688888610623565b50505050610374610801565b50505050565b5f5f6001546032915091509091565b3073ffffffffffffffffffffffffffffffffffffffff163373ffffffffffffffffffffffffffffffffffffffff16146103f7576040517f08c379a00000000000000000000000000000000000000000000000000000000081526004016103ee906110b9565b60405180910390fd5b5f73ffffffffffffffffffffffffffffffffffffffff168273ffffffffffffffffffffffffffffffffffffffff1603610473573073ffffffffffffffffffffffffffffffffffffffff166108fc8290811502906040515f60405180830381858888f1935050505015801561046d573d5f5f3e3d5ffd5b50610575565b5f8273ffffffffffffffffffffffffffffffffffffffff1663a9059cbb30846040516024016104a39291906110e6565b6040516020818303038152906040529060e01b6020820180517bffffffffffffffffffffffffffffffffffffffffffffffffffffffff83818316178352505050506040516104f1919061110d565b5f604051808303815f865af19150503d805f811461052a576040519150601f19603f3d011682016040523d82523d5f602084013e61052f565b606091505b5050905080610573576040517f08c379a000000000000000000000000000000000000000000000000000000000815260040161056a9061116d565b60405180910390fd5b505b5050565b60015481565b5f5f5f90505b838390508110156105d3578383828181106105a3576105a261118b565b5b90506020028101906105b591906111c4565b60200135826105c49190611218565b91508080600101915050610585565b5092915050565b603281565b60025f540361061a576040517f3ee5aeb500000000000000000000000000000000000000000000000000000000815260040160405180910390fd5b60025f81905550565b5f600154905060015f81548092919061063b9061124b565b91905055505f5f90505f5f90505b84849050811015610697578484828181106106675761066661118b565b5b905060200281019061067991906111c4565b60200135826106889190611218565b91508080600101915050610649565b50803410156106d2576040517f6a12f10400000000000000000000000000000000000000000000000000000000815260040160405180910390fd5b5f5f90505b84849050811015610726576107198585838181106106f8576106f761118b565b5b905060200281019061070a91906111c4565b6107139061144f565b8261094b565b80806001019150506106d7565b503373ffffffffffffffffffffffffffffffffffffffff16827f038e3e301c01a507b586475b8dd15a31c9a7e3ed404d082e69abfd01a8f577d1868690506040516107719190610fad565b60405180910390a3803411156107fb575f813461078e9190611461565b90505f3373ffffffffffffffffffffffffffffffffffffffff16826040516107b5906114b7565b5f6040518083038185875af1925050503d805f81146107ef576040519150601f19603f3d011682016040523d82523d5f602084013e6107f4565b606091505b5050905050505b50505050565b60015f81905550565b6060805f5f90505b848490508110156108e357818585838181106108315761083061118b565b5b905060200281019061084391906111c4565b5f01602081019061085491906114cb565b8686848181106108675761086661118b565b5b905060200281019061087991906111c4565b602001358787858181106108905761088f61118b565b5b90506020028101906108a291906111c4565b80604001906108b191906114f6565b6040516020016108c59594939291906115c1565b60405160208183030381529060405291508080600101915050610812565b508091505092915050565b5f7f19457468657265756d205369676e6564204d6573736167653a0a3332000000005f5281601c52603c5f209050919050565b5f5f5f5f61092f8686610a7e565b92509250925061093f8282610ad3565b82935050505092915050565b5f5f835f015173ffffffffffffffffffffffffffffffffffffffff168460200151856040015160405161097e919061110d565b5f6040518083038185875af1925050503d805f81146109b8576040519150601f19603f3d011682016040523d82523d5f602084013e6109bd565b606091505b509150915081610a065782816040517f5c0dee5d0000000000000000000000000000000000000000000000000000000081526004016109fd929190611650565b60405180910390fd5b835f015173ffffffffffffffffffffffffffffffffffffffff163373ffffffffffffffffffffffffffffffffffffffff167fed7e8f919df9cc0d0ad8b4057d084ebf319b630564d5da283e14751adc931f3a86602001518760400151604051610a70929190611650565b60405180910390a350505050565b5f5f5f6041845103610abe575f5f5f602087015192506040870151915060608701515f1a9050610ab088828585610c35565b955095509550505050610acc565b5f600285515f1b9250925092505b9250925092565b5f6003811115610ae657610ae561167e565b5b826003811115610af957610af861167e565b5b0315610c315760016003811115610b1357610b1261167e565b5b826003811115610b2657610b2561167e565b5b03610b5d576040517ff645eedf00000000000000000000000000000000000000000000000000000000815260040160405180910390fd5b60026003811115610b7157610b7061167e565b5b826003811115610b8457610b8361167e565b5b03610bc857805f1c6040517ffce698f7000000000000000000000000000000000000000000000000000000008152600401610bbf9190610fad565b60405180910390fd5b600380811115610bdb57610bda61167e565b5b826003811115610bee57610bed61167e565b5b03610c3057806040517fd78bce0c000000000000000000000000000000000000000000000000000000008152600401610c2791906116c3565b60405180910390fd5b5b5050565b5f5f5f7f7fffffffffffffffffffffffffffffff5d576e7357a4501ddfe92f46681b20a0845f1c1115610c71575f600385925092509250610d12565b5f6001888888886040515f8152602001604052604051610c9494939291906116f7565b6020604051602081039080840390855afa158015610cb4573d5f5f3e3d5ffd5b5050506020604051035190505f73ffffffffffffffffffffffffffffffffffffffff168173ffffffffffffffffffffffffffffffffffffffff1603610d05575f60015f5f1b93509350935050610d12565b805f5f5f1b935093509350505b9450945094915050565b5f604051905090565b5f5ffd5b5f5ffd5b5f5ffd5b5f5ffd5b5f5ffd5b5f5f83601f840112610d4e57610d4d610d2d565b5b8235905067ffffffffffffffff811115610d6b57610d6a610d31565b5b602083019150836020820283011115610d8757610d86610d35565b5b9250929050565b5f5f60208385031215610da457610da3610d25565b5b5f83013567ffffffffffffffff811115610dc157610dc0610d29565b5b610dcd85828601610d39565b92509250509250929050565b5f5f83601f840112610dee57610ded610d2d565b5b8235905067ffffffffffffffff811115610e0b57610e0a610d31565b5b602083019150836001820283011115610e2757610e26610d35565b5b9250929050565b5f5f5f5f60408587031215610e4657610e45610d25565b5b5f85013567ffffffffffffffff811115610e6357610e62610d29565b5b610e6f87828801610d39565b9450945050602085013567ffffffffffffffff811115610e9257610e91610d29565b5b610e9e87828801610dd9565b925092505092959194509250565b5f819050919050565b610ebe81610eac565b82525050565b5f604082019050610ed75f830185610eb5565b610ee46020830184610eb5565b9392505050565b5f73ffffffffffffffffffffffffffffffffffffffff82169050919050565b5f610f1482610eeb565b9050919050565b610f2481610f0a565b8114610f2e575f5ffd5b50565b5f81359050610f3f81610f1b565b92915050565b610f4e81610eac565b8114610f58575f5ffd5b50565b5f81359050610f6981610f45565b92915050565b5f5f60408385031215610f8557610f84610d25565b5b5f610f9285828601610f31565b9250506020610fa385828601610f5b565b9150509250929050565b5f602082019050610fc05f830184610eb5565b92915050565b5f819050919050565b610fe0610fdb82610eac565b610fc6565b82525050565b5f81519050919050565b5f81905092915050565b8281835e5f83830152505050565b5f61101282610fe6565b61101c8185610ff0565b935061102c818560208601610ffa565b80840191505092915050565b5f6110438285610fcf565b6020820191506110538284611008565b91508190509392505050565b5f82825260208201905092915050565b7f4f6e6c79207669612064656c65676174696f6e000000000000000000000000005f82015250565b5f6110a360138361105f565b91506110ae8261106f565b602082019050919050565b5f6020820190508181035f8301526110d081611097565b9050919050565b6110e081610f0a565b82525050565b5f6040820190506110f95f8301856110d7565b6111066020830184610eb5565b9392505050565b5f6111188284611008565b915081905092915050565b7f546f6b656e207472616e73666572206661696c656400000000000000000000005f82015250565b5f61115760158361105f565b915061116282611123565b602082019050919050565b5f6020820190508181035f8301526111848161114b565b9050919050565b7f4e487b71000000000000000000000000000000000000000000000000000000005f52603260045260245ffd5b5f5ffd5b5f5ffd5b5f5ffd5b5f823560016060038336030381126111df576111de6111b8565b5b80830191505092915050565b7f4e487b71000000000000000000000000000000000000000000000000000000005f52601160045260245ffd5b5f61122282610eac565b915061122d83610eac565b9250828201905080821115611245576112446111eb565b5b92915050565b5f61125582610eac565b91507fffffffffffffffffffffffffffffffffffffffffffffffffffffffffffffffff8203611287576112866111eb565b5b600182019050919050565b5f5ffd5b5f601f19601f8301169050919050565b7f4e487b71000000000000000000000000000000000000000000000000000000005f52604160045260245ffd5b6112dc82611296565b810181811067ffffffffffffffff821117156112fb576112fa6112a6565b5b80604052505050565b5f61130d610d1c565b905061131982826112d3565b919050565b5f5ffd5b5f5ffd5b5f67ffffffffffffffff8211156113405761133f6112a6565b5b61134982611296565b9050602081019050919050565b828183375f83830152505050565b5f61137661137184611326565b611304565b90508281526020810184848401111561139257611391611322565b5b61139d848285611356565b509392505050565b5f82601f8301126113b9576113b8610d2d565b5b81356113c9848260208601611364565b91505092915050565b5f606082840312156113e7576113e6611292565b5b6113f16060611304565b90505f61140084828501610f31565b5f83015250602061141384828501610f5b565b602083015250604082013567ffffffffffffffff8111156114375761143661131e565b5b611443848285016113a5565b60408301525092915050565b5f61145a36836113d2565b9050919050565b5f61146b82610eac565b915061147683610eac565b925082820390508181111561148e5761148d6111eb565b5b92915050565b50565b5f6114a25f83610ff0565b91506114ad82611494565b5f82019050919050565b5f6114c182611497565b9150819050919050565b5f602082840312156114e0576114df610d25565b5b5f6114ed84828501610f31565b91505092915050565b5f5f83356001602003843603038112611512576115116111b8565b5b80840192508235915067ffffffffffffffff821115611534576115336111bc565b5b6020830192506001820236038313156115505761154f6111c0565b5b509250929050565b5f8160601b9050919050565b5f61156e82611558565b9050919050565b5f61157f82611564565b9050919050565b61159761159282610f0a565b611575565b82525050565b5f6115a88385610ff0565b93506115b5838584611356565b82840190509392505050565b5f6115cc8288611008565b91506115d88287611586565b6014820191506115e88286610fcf565b6020820191506115f982848661159d565b91508190509695505050505050565b5f82825260208201905092915050565b5f61162282610fe6565b61162c8185611608565b935061163c818560208601610ffa565b61164581611296565b840191505092915050565b5f6040820190506116635f830185610eb5565b81810360208301526116758184611618565b90509392505050565b7f4e487b71000000000000000000000000000000000000000000000000000000005f52602160045260245ffd5b5f819050919050565b6116bd816116ab565b82525050565b5f6020820190506116d65f8301846116b4565b92915050565b5f60ff82169050919050565b6116f1816116dc565b82525050565b5f60808201905061170a5f8301876116b4565b61171760208301866116e8565b61172460408301856116b4565b61173160608301846116b4565b9594505050505056fea264697066735822122096aa32c334897b627223e9cd9b5230a77a8e3acca52b4900468bf4011ecebfbb64736f6c634300081e0033","linkReferences":{}},"methodIdentifiers":{"MAX_BATCH_SIZE()":"cfdbf254","calculateETHNeeded((address,uint256,bytes)[])":"b3cd7829","emergencyWithdraw(address,uint256)":"95ccea67","execute((address,uint256,bytes)[])":"3f707e6b","execute((address,uint256,bytes)[],bytes)":"6171d1c9","getContractInfo()":"7cc1f867","nonce()":"affed0e0"},"id":24}